{
  "contractName": "DabbaSystem",
  "abi": [
    {
      "inputs": [
        {
          "internalType": "string",
          "name": "",
          "type": "string"
        }
      ],
      "name": "dabbaRecords",
      "outputs": [
        {
          "internalType": "string",
          "name": "orderId",
          "type": "string"
        },
        {
          "internalType": "string",
          "name": "qrHash",
          "type": "string"
        },
        {
          "components": [
            {
              "internalType": "string",
              "name": "foodProviderId",
              "type": "string"
            },
            {
              "internalType": "string",
              "name": "foodProviderName",
              "type": "string"
            },
            {
              "internalType": "string",
              "name": "providerLocation",
              "type": "string"
            },
            {
              "internalType": "string",
              "name": "timePickedUp",
              "type": "string"
            },
            {
              "internalType": "string",
              "name": "collectorId",
              "type": "string"
            },
            {
              "internalType": "string",
              "name": "collectorName",
              "type": "string"
            }
          ],
          "internalType": "struct DabbaSystem.ProviderStage",
          "name": "provider",
          "type": "tuple"
        },
        {
          "components": [
            {
              "internalType": "string",
              "name": "collectionStation",
              "type": "string"
            },
            {
              "internalType": "string",
              "name": "sortingTime",
              "type": "string"
            }
          ],
          "internalType": "struct DabbaSystem.CollectorStage",
          "name": "collector",
          "type": "tuple"
        },
        {
          "components": [
            {
              "internalType": "string",
              "name": "residentialSorterId",
              "type": "string"
            },
            {
              "internalType": "string",
              "name": "residentialSortStation",
              "type": "string"
            },
            {
              "internalType": "uint256",
              "name": "sortedBoxCount",
              "type": "uint256"
            },
            {
              "internalType": "string",
              "name": "timeBoardedTrain",
              "type": "string"
            }
          ],
          "internalType": "struct DabbaSystem.ResidentialSorterStage",
          "name": "residentialSorter",
          "type": "tuple"
        },
        {
          "components": [
            {
              "internalType": "string",
              "name": "transporterId",
              "type": "string"
            },
            {
              "internalType": "string",
              "name": "trainNumber",
              "type": "string"
            },
            {
              "internalType": "string",
              "name": "timeReachedDestination",
              "type": "string"
            }
          ],
          "internalType": "struct DabbaSystem.TransporterStage",
          "name": "transporter",
          "type": "tuple"
        },
        {
          "components": [
            {
              "internalType": "string",
              "name": "destinationSorterId",
              "type": "string"
            },
            {
              "internalType": "uint256",
              "name": "boxesReceived",
              "type": "uint256"
            },
            {
              "internalType": "string[]",
              "name": "receivedOrderIds",
              "type": "string[]"
            },
            {
              "internalType": "string",
              "name": "timeToDistribute",
              "type": "string"
            }
          ],
          "internalType": "struct DabbaSystem.DestinationSorterStage",
          "name": "destinationSorter",
          "type": "tuple"
        },
        {
          "components": [
            {
              "internalType": "string",
              "name": "distributorId",
              "type": "string"
            },
            {
              "internalType": "string",
              "name": "deliveryCenter",
              "type": "string"
            },
            {
              "internalType": "string[]",
              "name": "distributedOrderIds",
              "type": "string[]"
            },
            {
              "internalType": "string",
              "name": "deliveryTime",
              "type": "string"
            },
            {
              "internalType": "string",
              "name": "receiverName",
              "type": "string"
            }
          ],
          "internalType": "struct DabbaSystem.DistributionStage",
          "name": "distribution",
          "type": "tuple"
        },
        {
          "components": [
            {
              "internalType": "string",
              "name": "customerConfirmed",
              "type": "string"
            },
            {
              "internalType": "string",
              "name": "deliveryConfirmationTime",
              "type": "string"
            }
          ],
          "internalType": "struct DabbaSystem.CustomerStage",
          "name": "customer",
          "type": "tuple"
        }
      ],
      "stateMutability": "view",
      "type": "function",
      "constant": true
    },
    {
      "inputs": [
        {
          "internalType": "string",
          "name": "_orderId",
          "type": "string"
        },
        {
          "internalType": "string",
          "name": "_qrHash",
          "type": "string"
        },
        {
          "internalType": "string",
          "name": "_foodProviderId",
          "type": "string"
        },
        {
          "internalType": "string",
          "name": "_foodProviderName",
          "type": "string"
        },
        {
          "internalType": "string",
          "name": "_providerLocation",
          "type": "string"
        },
        {
          "internalType": "string",
          "name": "_timePickedUp",
          "type": "string"
        },
        {
          "internalType": "string",
          "name": "_collectorId",
          "type": "string"
        },
        {
          "internalType": "string",
          "name": "_collectorName",
          "type": "string"
        }
      ],
      "name": "createOrder",
      "outputs": [],
      "stateMutability": "nonpayable",
      "type": "function"
    },
    {
      "inputs": [
        {
          "internalType": "string",
          "name": "_orderId",
          "type": "string"
        },
        {
          "internalType": "string",
          "name": "_collectionStation",
          "type": "string"
        },
        {
          "internalType": "string",
          "name": "_sortingTime",
          "type": "string"
        }
      ],
      "name": "logCollectorStage",
      "outputs": [],
      "stateMutability": "nonpayable",
      "type": "function"
    },
    {
      "inputs": [
        {
          "internalType": "string",
          "name": "_orderId",
          "type": "string"
        },
        {
          "internalType": "string",
          "name": "_residentialSorterId",
          "type": "string"
        },
        {
          "internalType": "string",
          "name": "_station",
          "type": "string"
        },
        {
          "internalType": "uint256",
          "name": "_sortedBoxCount",
          "type": "uint256"
        },
        {
          "internalType": "string",
          "name": "_timeBoarded",
          "type": "string"
        }
      ],
      "name": "logResidentialSortingStage",
      "outputs": [],
      "stateMutability": "nonpayable",
      "type": "function"
    },
    {
      "inputs": [
        {
          "internalType": "string",
          "name": "_orderId",
          "type": "string"
        },
        {
          "internalType": "string",
          "name": "_transporterId",
          "type": "string"
        },
        {
          "internalType": "string",
          "name": "_trainNumber",
          "type": "string"
        },
        {
          "internalType": "string",
          "name": "_timeReached",
          "type": "string"
        }
      ],
      "name": "logTransportStage",
      "outputs": [],
      "stateMutability": "nonpayable",
      "type": "function"
    },
    {
      "inputs": [
        {
          "internalType": "string",
          "name": "_orderId",
          "type": "string"
        },
        {
          "internalType": "string",
          "name": "_destinationSorterId",
          "type": "string"
        },
        {
          "internalType": "uint256",
          "name": "_boxesReceived",
          "type": "uint256"
        },
        {
          "internalType": "string[]",
          "name": "_receivedOrderIds",
          "type": "string[]"
        },
        {
          "internalType": "string",
          "name": "_timeToDistribute",
          "type": "string"
        }
      ],
      "name": "logDestinationSortingStage",
      "outputs": [],
      "stateMutability": "nonpayable",
      "type": "function"
    },
    {
      "inputs": [
        {
          "internalType": "string",
          "name": "_orderId",
          "type": "string"
        },
        {
          "internalType": "string",
          "name": "_distributorId",
          "type": "string"
        },
        {
          "internalType": "string",
          "name": "_deliveryCenter",
          "type": "string"
        },
        {
          "internalType": "string[]",
          "name": "_distributedOrderIds",
          "type": "string[]"
        },
        {
          "internalType": "string",
          "name": "_deliveryTime",
          "type": "string"
        },
        {
          "internalType": "string",
          "name": "_receiverName",
          "type": "string"
        }
      ],
      "name": "logDistributionStage",
      "outputs": [],
      "stateMutability": "nonpayable",
      "type": "function"
    },
    {
      "inputs": [
        {
          "internalType": "string",
          "name": "_orderId",
          "type": "string"
        },
        {
          "internalType": "string",
          "name": "_confirmation",
          "type": "string"
        },
        {
          "internalType": "string",
          "name": "_confirmationTime",
          "type": "string"
        }
      ],
      "name": "logCustomerConfirmationStage",
      "outputs": [],
      "stateMutability": "nonpayable",
      "type": "function"
    },
    {
      "inputs": [
        {
          "internalType": "string",
          "name": "_orderId",
          "type": "string"
        }
      ],
      "name": "getOrder",
      "outputs": [
        {
          "components": [
            {
              "internalType": "string",
              "name": "orderId",
              "type": "string"
            },
            {
              "internalType": "string",
              "name": "qrHash",
              "type": "string"
            },
            {
              "components": [
                {
                  "internalType": "string",
                  "name": "foodProviderId",
                  "type": "string"
                },
                {
                  "internalType": "string",
                  "name": "foodProviderName",
                  "type": "string"
                },
                {
                  "internalType": "string",
                  "name": "providerLocation",
                  "type": "string"
                },
                {
                  "internalType": "string",
                  "name": "timePickedUp",
                  "type": "string"
                },
                {
                  "internalType": "string",
                  "name": "collectorId",
                  "type": "string"
                },
                {
                  "internalType": "string",
                  "name": "collectorName",
                  "type": "string"
                }
              ],
              "internalType": "struct DabbaSystem.ProviderStage",
              "name": "provider",
              "type": "tuple"
            },
            {
              "components": [
                {
                  "internalType": "string",
                  "name": "collectionStation",
                  "type": "string"
                },
                {
                  "internalType": "string",
                  "name": "sortingTime",
                  "type": "string"
                }
              ],
              "internalType": "struct DabbaSystem.CollectorStage",
              "name": "collector",
              "type": "tuple"
            },
            {
              "components": [
                {
                  "internalType": "string",
                  "name": "residentialSorterId",
                  "type": "string"
                },
                {
                  "internalType": "string",
                  "name": "residentialSortStation",
                  "type": "string"
                },
                {
                  "internalType": "uint256",
                  "name": "sortedBoxCount",
                  "type": "uint256"
                },
                {
                  "internalType": "string",
                  "name": "timeBoardedTrain",
                  "type": "string"
                }
              ],
              "internalType": "struct DabbaSystem.ResidentialSorterStage",
              "name": "residentialSorter",
              "type": "tuple"
            },
            {
              "components": [
                {
                  "internalType": "string",
                  "name": "transporterId",
                  "type": "string"
                },
                {
                  "internalType": "string",
                  "name": "trainNumber",
                  "type": "string"
                },
                {
                  "internalType": "string",
                  "name": "timeReachedDestination",
                  "type": "string"
                }
              ],
              "internalType": "struct DabbaSystem.TransporterStage",
              "name": "transporter",
              "type": "tuple"
            },
            {
              "components": [
                {
                  "internalType": "string",
                  "name": "destinationSorterId",
                  "type": "string"
                },
                {
                  "internalType": "uint256",
                  "name": "boxesReceived",
                  "type": "uint256"
                },
                {
                  "internalType": "string[]",
                  "name": "receivedOrderIds",
                  "type": "string[]"
                },
                {
                  "internalType": "string",
                  "name": "timeToDistribute",
                  "type": "string"
                }
              ],
              "internalType": "struct DabbaSystem.DestinationSorterStage",
              "name": "destinationSorter",
              "type": "tuple"
            },
            {
              "components": [
                {
                  "internalType": "string",
                  "name": "distributorId",
                  "type": "string"
                },
                {
                  "internalType": "string",
                  "name": "deliveryCenter",
                  "type": "string"
                },
                {
                  "internalType": "string[]",
                  "name": "distributedOrderIds",
                  "type": "string[]"
                },
                {
                  "internalType": "string",
                  "name": "deliveryTime",
                  "type": "string"
                },
                {
                  "internalType": "string",
                  "name": "receiverName",
                  "type": "string"
                }
              ],
              "internalType": "struct DabbaSystem.DistributionStage",
              "name": "distribution",
              "type": "tuple"
            },
            {
              "components": [
                {
                  "internalType": "string",
                  "name": "customerConfirmed",
                  "type": "string"
                },
                {
                  "internalType": "string",
                  "name": "deliveryConfirmationTime",
                  "type": "string"
                }
              ],
              "internalType": "struct DabbaSystem.CustomerStage",
              "name": "customer",
              "type": "tuple"
            }
          ],
          "internalType": "struct DabbaSystem.DabbaLog",
          "name": "",
          "type": "tuple"
        }
      ],
      "stateMutability": "view",
      "type": "function",
      "constant": true
    }
  ],
  "bytecode": "0x608060405234801561001057600080fd5b5061415a806100206000396000f3fe608060405234801561001057600080fd5b50600436106100935760003560e01c8063712ca0f811610066578063712ca0f814610108578063743df97614610138578063adc2768914610154578063b59bd3621461018c578063bde8d789146101a857610093565b80631c70d9e71461009857806323354260146100b457806358c71a08146100d05780635ba2be84146100ec575b600080fd5b6100b260048036038101906100ad91906132ec565b6101c4565b005b6100ce60048036038101906100c9919061307f565b6102e3565b005b6100ea60048036038101906100e59190613156565b6103f1565b005b61010660048036038101906101019190612ea3565b6105a2565b005b610122600480360381019061011d9190612e5a565b61068c565b60405161012f9190613e6f565b60405180910390f35b610152600480360381019061014d91906133d7565b6116c7565b005b61016e60048036038101906101699190612e5a565b6117e6565b60405161018399989796959493929190613d63565b60405180910390f35b6101a660048036038101906101a19190612f4a565b6127f2565b005b6101c260048036038101906101bd9190612ea3565b612948565b005b84600080826040516101d69190613d4c565b908152602001604051809103902060000180546101f290613fd0565b90501415610235576040517f08c379a000000000000000000000000000000000000000000000000000000000815260040161022c90613e4f565b60405180910390fd5b6040518060800160405280868152602001858152602001848152602001838152506000876040516102669190613d4c565b9081526020016040518091039020600a016000820151816000019080519060200190610293929190612a32565b5060208201518160010190805190602001906102b0929190612a32565b506040820151816002015560608201518160030190805190602001906102d7929190612a32565b50905050505050505050565b83600080826040516102f59190613d4c565b9081526020016040518091039020600001805461031190613fd0565b90501415610354576040517f08c379a000000000000000000000000000000000000000000000000000000000815260040161034b90613e4f565b60405180910390fd5b60405180606001604052808581526020018481526020018381525060008660405161037f9190613d4c565b9081526020016040518091039020600e0160008201518160000190805190602001906103ac929190612a32565b5060208201518160010190805190602001906103c9929190612a32565b5060408201518160020190805190602001906103e6929190612a32565b509050505050505050565b87600080826040516104039190613d4c565b9081526020016040518091039020600001805461041f90613fd0565b905014610461576040517f08c379a000000000000000000000000000000000000000000000000000000000815260040161045890613e2f565b60405180910390fd5b6000808a6040516104729190613d4c565b908152602001604051809103902090508981600001908051906020019061049a929190612a32565b50888160010190805190602001906104b3929190612a32565b506040518060c0016040528089815260200188815260200187815260200186815260200185815260200184815250816002016000820151816000019080519060200190610501929190612a32565b50602082015181600101908051906020019061051e929190612a32565b50604082015181600201908051906020019061053b929190612a32565b506060820151816003019080519060200190610558929190612a32565b506080820151816004019080519060200190610575929190612a32565b5060a0820151816005019080519060200190610592929190612a32565b5090505050505050505050505050565b82600080826040516105b49190613d4c565b908152602001604051809103902060000180546105d090613fd0565b90501415610613576040517f08c379a000000000000000000000000000000000000000000000000000000000815260040161060a90613e4f565b60405180910390fd5b6040518060400160405280848152602001838152506000856040516106389190613d4c565b9081526020016040518091039020601a016000820151816000019080519060200190610665929190612a32565b506020820151816001019080519060200190610682929190612a32565b5090505050505050565b610694612ab8565b6000826040516106a49190613d4c565b9081526020016040518091039020604051806101200160405290816000820180546106ce90613fd0565b80601f01602080910402602001604051908101604052809291908181526020018280546106fa90613fd0565b80156107475780601f1061071c57610100808354040283529160200191610747565b820191906000526020600020905b81548152906001019060200180831161072a57829003601f168201915b5050505050815260200160018201805461076090613fd0565b80601f016020809104026020016040519081016040528092919081815260200182805461078c90613fd0565b80156107d95780601f106107ae576101008083540402835291602001916107d9565b820191906000526020600020905b8154815290600101906020018083116107bc57829003601f168201915b50505050508152602001600282016040518060c001604052908160008201805461080290613fd0565b80601f016020809104026020016040519081016040528092919081815260200182805461082e90613fd0565b801561087b5780601f106108505761010080835404028352916020019161087b565b820191906000526020600020905b81548152906001019060200180831161085e57829003601f168201915b5050505050815260200160018201805461089490613fd0565b80601f01602080910402602001604051908101604052809291908181526020018280546108c090613fd0565b801561090d5780601f106108e25761010080835404028352916020019161090d565b820191906000526020600020905b8154815290600101906020018083116108f057829003601f168201915b5050505050815260200160028201805461092690613fd0565b80601f016020809104026020016040519081016040528092919081815260200182805461095290613fd0565b801561099f5780601f106109745761010080835404028352916020019161099f565b820191906000526020600020905b81548152906001019060200180831161098257829003601f168201915b505050505081526020016003820180546109b890613fd0565b80601f01602080910402602001604051908101604052809291908181526020018280546109e490613fd0565b8015610a315780601f10610a0657610100808354040283529160200191610a31565b820191906000526020600020905b815481529060010190602001808311610a1457829003601f168201915b50505050508152602001600482018054610a4a90613fd0565b80601f0160208091040260200160405190810160405280929190818152602001828054610a7690613fd0565b8015610ac35780601f10610a9857610100808354040283529160200191610ac3565b820191906000526020600020905b815481529060010190602001808311610aa657829003601f168201915b50505050508152602001600582018054610adc90613fd0565b80601f0160208091040260200160405190810160405280929190818152602001828054610b0890613fd0565b8015610b555780601f10610b2a57610100808354040283529160200191610b55565b820191906000526020600020905b815481529060010190602001808311610b3857829003601f168201915b505050505081525050815260200160088201604051806040016040529081600082018054610b8290613fd0565b80601f0160208091040260200160405190810160405280929190818152602001828054610bae90613fd0565b8015610bfb5780601f10610bd057610100808354040283529160200191610bfb565b820191906000526020600020905b815481529060010190602001808311610bde57829003601f168201915b50505050508152602001600182018054610c1490613fd0565b80601f0160208091040260200160405190810160405280929190818152602001828054610c4090613fd0565b8015610c8d5780601f10610c6257610100808354040283529160200191610c8d565b820191906000526020600020905b815481529060010190602001808311610c7057829003601f168201915b5050505050815250508152602001600a8201604051806080016040529081600082018054610cba90613fd0565b80601f0160208091040260200160405190810160405280929190818152602001828054610ce690613fd0565b8015610d335780601f10610d0857610100808354040283529160200191610d33565b820191906000526020600020905b815481529060010190602001808311610d1657829003601f168201915b50505050508152602001600182018054610d4c90613fd0565b80601f0160208091040260200160405190810160405280929190818152602001828054610d7890613fd0565b8015610dc55780601f10610d9a57610100808354040283529160200191610dc5565b820191906000526020600020905b815481529060010190602001808311610da857829003601f168201915b5050505050815260200160028201548152602001600382018054610de890613fd0565b80601f0160208091040260200160405190810160405280929190818152602001828054610e1490613fd0565b8015610e615780601f10610e3657610100808354040283529160200191610e61565b820191906000526020600020905b815481529060010190602001808311610e4457829003601f168201915b5050505050815250508152602001600e8201604051806060016040529081600082018054610e8e90613fd0565b80601f0160208091040260200160405190810160405280929190818152602001828054610eba90613fd0565b8015610f075780601f10610edc57610100808354040283529160200191610f07565b820191906000526020600020905b815481529060010190602001808311610eea57829003601f168201915b50505050508152602001600182018054610f2090613fd0565b80601f0160208091040260200160405190810160405280929190818152602001828054610f4c90613fd0565b8015610f995780601f10610f6e57610100808354040283529160200191610f99565b820191906000526020600020905b815481529060010190602001808311610f7c57829003601f168201915b50505050508152602001600282018054610fb290613fd0565b80601f0160208091040260200160405190810160405280929190818152602001828054610fde90613fd0565b801561102b5780601f106110005761010080835404028352916020019161102b565b820191906000526020600020905b81548152906001019060200180831161100e57829003601f168201915b50505050508152505081526020016011820160405180608001604052908160008201805461105890613fd0565b80601f016020809104026020016040519081016040528092919081815260200182805461108490613fd0565b80156110d15780601f106110a6576101008083540402835291602001916110d1565b820191906000526020600020905b8154815290600101906020018083116110b457829003601f168201915b505050505081526020016001820154815260200160028201805480602002602001604051908101604052809291908181526020016000905b828210156111b557838290600052602060002001805461112890613fd0565b80601f016020809104026020016040519081016040528092919081815260200182805461115490613fd0565b80156111a15780601f10611176576101008083540402835291602001916111a1565b820191906000526020600020905b81548152906001019060200180831161118457829003601f168201915b505050505081526020019060010190611109565b5050505081526020016003820180546111cd90613fd0565b80601f01602080910402602001604051908101604052809291908181526020018280546111f990613fd0565b80156112465780601f1061121b57610100808354040283529160200191611246565b820191906000526020600020905b81548152906001019060200180831161122957829003601f168201915b5050505050815250508152602001601582016040518060a001604052908160008201805461127390613fd0565b80601f016020809104026020016040519081016040528092919081815260200182805461129f90613fd0565b80156112ec5780601f106112c1576101008083540402835291602001916112ec565b820191906000526020600020905b8154815290600101906020018083116112cf57829003601f168201915b5050505050815260200160018201805461130590613fd0565b80601f016020809104026020016040519081016040528092919081815260200182805461133190613fd0565b801561137e5780601f106113535761010080835404028352916020019161137e565b820191906000526020600020905b81548152906001019060200180831161136157829003601f168201915b5050505050815260200160028201805480602002602001604051908101604052809291908181526020016000905b828210156114585783829060005260206000200180546113cb90613fd0565b80601f01602080910402602001604051908101604052809291908181526020018280546113f790613fd0565b80156114445780601f1061141957610100808354040283529160200191611444565b820191906000526020600020905b81548152906001019060200180831161142757829003601f168201915b5050505050815260200190600101906113ac565b50505050815260200160038201805461147090613fd0565b80601f016020809104026020016040519081016040528092919081815260200182805461149c90613fd0565b80156114e95780601f106114be576101008083540402835291602001916114e9565b820191906000526020600020905b8154815290600101906020018083116114cc57829003601f168201915b5050505050815260200160048201805461150290613fd0565b80601f016020809104026020016040519081016040528092919081815260200182805461152e90613fd0565b801561157b5780601f106115505761010080835404028352916020019161157b565b820191906000526020600020905b81548152906001019060200180831161155e57829003601f168201915b5050505050815250508152602001601a82016040518060400160405290816000820180546115a890613fd0565b80601f01602080910402602001604051908101604052809291908181526020018280546115d490613fd0565b80156116215780601f106115f657610100808354040283529160200191611621565b820191906000526020600020905b81548152906001019060200180831161160457829003601f168201915b5050505050815260200160018201805461163a90613fd0565b80601f016020809104026020016040519081016040528092919081815260200182805461166690613fd0565b80156116b35780601f10611688576101008083540402835291602001916116b3565b820191906000526020600020905b81548152906001019060200180831161169657829003601f168201915b505050505081525050815250509050919050565b84600080826040516116d99190613d4c565b908152602001604051809103902060000180546116f590613fd0565b90501415611738576040517f08c379a000000000000000000000000000000000000000000000000000000000815260040161172f90613e4f565b60405180910390fd5b6040518060800160405280868152602001858152602001848152602001838152506000876040516117699190613d4c565b90815260200160405180910390206011016000820151816000019080519060200190611796929190612a32565b506020820151816001015560408201518160020190805190602001906117bd929190612b2e565b5060608201518160030190805190602001906117da929190612a32565b50905050505050505050565b60008180516020810182018051848252602083016020850120818352809550505050505060009150905080600001805461181f90613fd0565b80601f016020809104026020016040519081016040528092919081815260200182805461184b90613fd0565b80156118985780601f1061186d57610100808354040283529160200191611898565b820191906000526020600020905b81548152906001019060200180831161187b57829003601f168201915b5050505050908060010180546118ad90613fd0565b80601f01602080910402602001604051908101604052809291908181526020018280546118d990613fd0565b80156119265780601f106118fb57610100808354040283529160200191611926565b820191906000526020600020905b81548152906001019060200180831161190957829003601f168201915b505050505090806002016040518060c001604052908160008201805461194b90613fd0565b80601f016020809104026020016040519081016040528092919081815260200182805461197790613fd0565b80156119c45780601f10611999576101008083540402835291602001916119c4565b820191906000526020600020905b8154815290600101906020018083116119a757829003601f168201915b505050505081526020016001820180546119dd90613fd0565b80601f0160208091040260200160405190810160405280929190818152602001828054611a0990613fd0565b8015611a565780601f10611a2b57610100808354040283529160200191611a56565b820191906000526020600020905b815481529060010190602001808311611a3957829003601f168201915b50505050508152602001600282018054611a6f90613fd0565b80601f0160208091040260200160405190810160405280929190818152602001828054611a9b90613fd0565b8015611ae85780601f10611abd57610100808354040283529160200191611ae8565b820191906000526020600020905b815481529060010190602001808311611acb57829003601f168201915b50505050508152602001600382018054611b0190613fd0565b80601f0160208091040260200160405190810160405280929190818152602001828054611b2d90613fd0565b8015611b7a5780601f10611b4f57610100808354040283529160200191611b7a565b820191906000526020600020905b815481529060010190602001808311611b5d57829003601f168201915b50505050508152602001600482018054611b9390613fd0565b80601f0160208091040260200160405190810160405280929190818152602001828054611bbf90613fd0565b8015611c0c5780601f10611be157610100808354040283529160200191611c0c565b820191906000526020600020905b815481529060010190602001808311611bef57829003601f168201915b50505050508152602001600582018054611c2590613fd0565b80601f0160208091040260200160405190810160405280929190818152602001828054611c5190613fd0565b8015611c9e5780601f10611c7357610100808354040283529160200191611c9e565b820191906000526020600020905b815481529060010190602001808311611c8157829003601f168201915b5050505050815250509080600801604051806040016040529081600082018054611cc790613fd0565b80601f0160208091040260200160405190810160405280929190818152602001828054611cf390613fd0565b8015611d405780601f10611d1557610100808354040283529160200191611d40565b820191906000526020600020905b815481529060010190602001808311611d2357829003601f168201915b50505050508152602001600182018054611d5990613fd0565b80601f0160208091040260200160405190810160405280929190818152602001828054611d8590613fd0565b8015611dd25780601f10611da757610100808354040283529160200191611dd2565b820191906000526020600020905b815481529060010190602001808311611db557829003601f168201915b5050505050815250509080600a01604051806080016040529081600082018054611dfb90613fd0565b80601f0160208091040260200160405190810160405280929190818152602001828054611e2790613fd0565b8015611e745780601f10611e4957610100808354040283529160200191611e74565b820191906000526020600020905b815481529060010190602001808311611e5757829003601f168201915b50505050508152602001600182018054611e8d90613fd0565b80601f0160208091040260200160405190810160405280929190818152602001828054611eb990613fd0565b8015611f065780601f10611edb57610100808354040283529160200191611f06565b820191906000526020600020905b815481529060010190602001808311611ee957829003601f168201915b5050505050815260200160028201548152602001600382018054611f2990613fd0565b80601f0160208091040260200160405190810160405280929190818152602001828054611f5590613fd0565b8015611fa25780601f10611f7757610100808354040283529160200191611fa2565b820191906000526020600020905b815481529060010190602001808311611f8557829003601f168201915b5050505050815250509080600e01604051806060016040529081600082018054611fcb90613fd0565b80601f0160208091040260200160405190810160405280929190818152602001828054611ff790613fd0565b80156120445780601f1061201957610100808354040283529160200191612044565b820191906000526020600020905b81548152906001019060200180831161202757829003601f168201915b5050505050815260200160018201805461205d90613fd0565b80601f016020809104026020016040519081016040528092919081815260200182805461208990613fd0565b80156120d65780601f106120ab576101008083540402835291602001916120d6565b820191906000526020600020905b8154815290600101906020018083116120b957829003601f168201915b505050505081526020016002820180546120ef90613fd0565b80601f016020809104026020016040519081016040528092919081815260200182805461211b90613fd0565b80156121685780601f1061213d57610100808354040283529160200191612168565b820191906000526020600020905b81548152906001019060200180831161214b57829003601f168201915b505050505081525050908060110160405180608001604052908160008201805461219190613fd0565b80601f01602080910402602001604051908101604052809291908181526020018280546121bd90613fd0565b801561220a5780601f106121df5761010080835404028352916020019161220a565b820191906000526020600020905b8154815290600101906020018083116121ed57829003601f168201915b505050505081526020016001820154815260200160028201805480602002602001604051908101604052809291908181526020016000905b828210156122ee57838290600052602060002001805461226190613fd0565b80601f016020809104026020016040519081016040528092919081815260200182805461228d90613fd0565b80156122da5780601f106122af576101008083540402835291602001916122da565b820191906000526020600020905b8154815290600101906020018083116122bd57829003601f168201915b505050505081526020019060010190612242565b50505050815260200160038201805461230690613fd0565b80601f016020809104026020016040519081016040528092919081815260200182805461233290613fd0565b801561237f5780601f106123545761010080835404028352916020019161237f565b820191906000526020600020905b81548152906001019060200180831161236257829003601f168201915b50505050508152505090806015016040518060a00160405290816000820180546123a890613fd0565b80601f01602080910402602001604051908101604052809291908181526020018280546123d490613fd0565b80156124215780601f106123f657610100808354040283529160200191612421565b820191906000526020600020905b81548152906001019060200180831161240457829003601f168201915b5050505050815260200160018201805461243a90613fd0565b80601f016020809104026020016040519081016040528092919081815260200182805461246690613fd0565b80156124b35780601f10612488576101008083540402835291602001916124b3565b820191906000526020600020905b81548152906001019060200180831161249657829003601f168201915b5050505050815260200160028201805480602002602001604051908101604052809291908181526020016000905b8282101561258d57838290600052602060002001805461250090613fd0565b80601f016020809104026020016040519081016040528092919081815260200182805461252c90613fd0565b80156125795780601f1061254e57610100808354040283529160200191612579565b820191906000526020600020905b81548152906001019060200180831161255c57829003601f168201915b5050505050815260200190600101906124e1565b5050505081526020016003820180546125a590613fd0565b80601f01602080910402602001604051908101604052809291908181526020018280546125d190613fd0565b801561261e5780601f106125f35761010080835404028352916020019161261e565b820191906000526020600020905b81548152906001019060200180831161260157829003601f168201915b5050505050815260200160048201805461263790613fd0565b80601f016020809104026020016040519081016040528092919081815260200182805461266390613fd0565b80156126b05780601f10612685576101008083540402835291602001916126b0565b820191906000526020600020905b81548152906001019060200180831161269357829003601f168201915b5050505050815250509080601a016040518060400160405290816000820180546126d990613fd0565b80601f016020809104026020016040519081016040528092919081815260200182805461270590613fd0565b80156127525780601f1061272757610100808354040283529160200191612752565b820191906000526020600020905b81548152906001019060200180831161273557829003601f168201915b5050505050815260200160018201805461276b90613fd0565b80601f016020809104026020016040519081016040528092919081815260200182805461279790613fd0565b80156127e45780601f106127b9576101008083540402835291602001916127e4565b820191906000526020600020905b8154815290600101906020018083116127c757829003601f168201915b505050505081525050905089565b85600080826040516128049190613d4c565b9081526020016040518091039020600001805461282090613fd0565b90501415612863576040517f08c379a000000000000000000000000000000000000000000000000000000000815260040161285a90613e4f565b60405180910390fd5b6040518060a001604052808781526020018681526020018581526020018481526020018381525060008860405161289a9190613d4c565b908152602001604051809103902060150160008201518160000190805190602001906128c7929190612a32565b5060208201518160010190805190602001906128e4929190612a32565b506040820151816002019080519060200190612901929190612b2e565b50606082015181600301908051906020019061291e929190612a32565b50608082015181600401908051906020019061293b929190612a32565b5090505050505050505050565b826000808260405161295a9190613d4c565b9081526020016040518091039020600001805461297690613fd0565b905014156129b9576040517f08c379a00000000000000000000000000000000000000000000000000000000081526004016129b090613e4f565b60405180910390fd5b6040518060400160405280848152602001838152506000856040516129de9190613d4c565b90815260200160405180910390206008016000820151816000019080519060200190612a0b929190612a32565b506020820151816001019080519060200190612a28929190612a32565b5090505050505050565b828054612a3e90613fd0565b90600052602060002090601f016020900481019282612a605760008555612aa7565b82601f10612a7957805160ff1916838001178555612aa7565b82800160010185558215612aa7579182015b82811115612aa6578251825591602001919060010190612a8b565b5b509050612ab49190612b8e565b5090565b6040518061012001604052806060815260200160608152602001612ada612bab565b8152602001612ae7612be1565b8152602001612af4612bfb565b8152602001612b01612c23565b8152602001612b0e612c44565b8152602001612b1b612c6c565b8152602001612b28612c9b565b81525090565b828054828255906000526020600020908101928215612b7d579160200282015b82811115612b7c578251829080519060200190612b6c929190612a32565b5091602001919060010190612b4e565b5b509050612b8a9190612cb5565b5090565b5b80821115612ba7576000816000905550600101612b8f565b5090565b6040518060c001604052806060815260200160608152602001606081526020016060815260200160608152602001606081525090565b604051806040016040528060608152602001606081525090565b6040518060800160405280606081526020016060815260200160008152602001606081525090565b60405180606001604052806060815260200160608152602001606081525090565b6040518060800160405280606081526020016000815260200160608152602001606081525090565b6040518060a0016040528060608152602001606081526020016060815260200160608152602001606081525090565b604051806040016040528060608152602001606081525090565b5b80821115612cd55760008181612ccc9190612cd9565b50600101612cb6565b5090565b508054612ce590613fd0565b6000825580601f10612cf75750612d16565b601f016020900490600052602060002090810190612d159190612b8e565b5b50565b6000612d2c612d2784613eb6565b613e91565b90508083825260208201905082856020860282011115612d4f57612d4e614096565b5b60005b85811015612d9d57813567ffffffffffffffff811115612d7557612d74614091565b5b808601612d828982612e17565b85526020850194506020840193505050600181019050612d52565b5050509392505050565b6000612dba612db584613ee2565b613e91565b905082815260208101848484011115612dd657612dd561409b565b5b612de1848285613f8e565b509392505050565b600082601f830112612dfe57612dfd614091565b5b8135612e0e848260208601612d19565b91505092915050565b600082601f830112612e2c57612e2b614091565b5b8135612e3c848260208601612da7565b91505092915050565b600081359050612e548161410d565b92915050565b600060208284031215612e7057612e6f6140a5565b5b600082013567ffffffffffffffff811115612e8e57612e8d6140a0565b5b612e9a84828501612e17565b91505092915050565b600080600060608486031215612ebc57612ebb6140a5565b5b600084013567ffffffffffffffff811115612eda57612ed96140a0565b5b612ee686828701612e17565b935050602084013567ffffffffffffffff811115612f0757612f066140a0565b5b612f1386828701612e17565b925050604084013567ffffffffffffffff811115612f3457612f336140a0565b5b612f4086828701612e17565b9150509250925092565b60008060008060008060c08789031215612f6757612f666140a5565b5b600087013567ffffffffffffffff811115612f8557612f846140a0565b5b612f9189828a01612e17565b965050602087013567ffffffffffffffff811115612fb257612fb16140a0565b5b612fbe89828a01612e17565b955050604087013567ffffffffffffffff811115612fdf57612fde6140a0565b5b612feb89828a01612e17565b945050606087013567ffffffffffffffff81111561300c5761300b6140a0565b5b61301889828a01612de9565b935050608087013567ffffffffffffffff811115613039576130386140a0565b5b61304589828a01612e17565b92505060a087013567ffffffffffffffff811115613066576130656140a0565b5b61307289828a01612e17565b9150509295509295509295565b60008060008060808587031215613099576130986140a5565b5b600085013567ffffffffffffffff8111156130b7576130b66140a0565b5b6130c387828801612e17565b945050602085013567ffffffffffffffff8111156130e4576130e36140a0565b5b6130f087828801612e17565b935050604085013567ffffffffffffffff811115613111576131106140a0565b5b61311d87828801612e17565b925050606085013567ffffffffffffffff81111561313e5761313d6140a0565b5b61314a87828801612e17565b91505092959194509250565b600080600080600080600080610100898b031215613177576131766140a5565b5b600089013567ffffffffffffffff811115613195576131946140a0565b5b6131a18b828c01612e17565b985050602089013567ffffffffffffffff8111156131c2576131c16140a0565b5b6131ce8b828c01612e17565b975050604089013567ffffffffffffffff8111156131ef576131ee6140a0565b5b6131fb8b828c01612e17565b965050606089013567ffffffffffffffff81111561321c5761321b6140a0565b5b6132288b828c01612e17565b955050608089013567ffffffffffffffff811115613249576132486140a0565b5b6132558b828c01612e17565b94505060a089013567ffffffffffffffff811115613276576132756140a0565b5b6132828b828c01612e17565b93505060c089013567ffffffffffffffff8111156132a3576132a26140a0565b5b6132af8b828c01612e17565b92505060e089013567ffffffffffffffff8111156132d0576132cf6140a0565b5b6132dc8b828c01612e17565b9150509295985092959890939650565b600080600080600060a08688031215613308576133076140a5565b5b600086013567ffffffffffffffff811115613326576133256140a0565b5b61333288828901612e17565b955050602086013567ffffffffffffffff811115613353576133526140a0565b5b61335f88828901612e17565b945050604086013567ffffffffffffffff8111156133805761337f6140a0565b5b61338c88828901612e17565b935050606061339d88828901612e45565b925050608086013567ffffffffffffffff8111156133be576133bd6140a0565b5b6133ca88828901612e17565b9150509295509295909350565b600080600080600060a086880312156133f3576133f26140a5565b5b600086013567ffffffffffffffff811115613411576134106140a0565b5b61341d88828901612e17565b955050602086013567ffffffffffffffff81111561343e5761343d6140a0565b5b61344a88828901612e17565b945050604061345b88828901612e45565b935050606086013567ffffffffffffffff81111561347c5761347b6140a0565b5b61348888828901612de9565b925050608086013567ffffffffffffffff8111156134a9576134a86140a0565b5b6134b588828901612e17565b9150509295509295909350565b60006134ce838361354b565b905092915050565b60006134e182613f23565b6134eb8185613f46565b9350836020820285016134fd85613f13565b8060005b85811015613539578484038952815161351a85826134c2565b945061352583613f39565b925060208a01995050600181019050613501565b50829750879550505050505092915050565b600061355682613f2e565b6135608185613f57565b9350613570818560208601613f9d565b613579816140aa565b840191505092915050565b600061358f82613f2e565b6135998185613f68565b93506135a9818560208601613f9d565b6135b2816140aa565b840191505092915050565b60006135c882613f2e565b6135d28185613f79565b93506135e2818560208601613f9d565b80840191505092915050565b60006135fb601583613f68565b9150613606826140bb565b602082019050919050565b600061361e601583613f68565b9150613629826140e4565b602082019050919050565b60006040830160008301518482036000860152613651828261354b565b9150506020830151848203602086015261366b828261354b565b9150508091505092915050565b60006040830160008301518482036000860152613695828261354b565b915050602083015184820360208601526136af828261354b565b9150508091505092915050565b600060408301600083015184820360008601526136d9828261354b565b915050602083015184820360208601526136f3828261354b565b9150508091505092915050565b6000604083016000830151848203600086015261371d828261354b565b91505060208301518482036020860152613737828261354b565b9150508091505092915050565b6000610120830160008301518482036000860152613762828261354b565b9150506020830151848203602086015261377c828261354b565b915050604083015184820360408601526137968282613a47565b915050606083015184820360608601526137b08282613634565b915050608083015184820360808601526137ca8282613b9f565b91505060a083015184820360a08601526137e48282613c81565b91505060c083015184820360c08601526137fe8282613841565b91505060e083015184820360e08601526138188282613923565b91505061010083015184820361010086015261383482826136bc565b9150508091505092915050565b6000608083016000830151848203600086015261385e828261354b565b91505060208301516138736020860182613d3d565b506040830151848203604086015261388b82826134d6565b915050606083015184820360608601526138a5828261354b565b9150508091505092915050565b600060808301600083015184820360008601526138cf828261354b565b91505060208301516138e46020860182613d3d565b50604083015184820360408601526138fc82826134d6565b91505060608301518482036060860152613916828261354b565b9150508091505092915050565b600060a0830160008301518482036000860152613940828261354b565b9150506020830151848203602086015261395a828261354b565b9150506040830151848203604086015261397482826134d6565b9150506060830151848203606086015261398e828261354b565b915050608083015184820360808601526139a8828261354b565b9150508091505092915050565b600060a08301600083015184820360008601526139d2828261354b565b915050602083015184820360208601526139ec828261354b565b91505060408301518482036040860152613a0682826134d6565b91505060608301518482036060860152613a20828261354b565b91505060808301518482036080860152613a3a828261354b565b9150508091505092915050565b600060c0830160008301518482036000860152613a64828261354b565b91505060208301518482036020860152613a7e828261354b565b91505060408301518482036040860152613a98828261354b565b91505060608301518482036060860152613ab2828261354b565b91505060808301518482036080860152613acc828261354b565b91505060a083015184820360a0860152613ae6828261354b565b9150508091505092915050565b600060c0830160008301518482036000860152613b10828261354b565b91505060208301518482036020860152613b2a828261354b565b91505060408301518482036040860152613b44828261354b565b91505060608301518482036060860152613b5e828261354b565b91505060808301518482036080860152613b78828261354b565b91505060a083015184820360a0860152613b92828261354b565b9150508091505092915050565b60006080830160008301518482036000860152613bbc828261354b565b91505060208301518482036020860152613bd6828261354b565b9150506040830151613beb6040860182613d3d565b5060608301518482036060860152613c03828261354b565b9150508091505092915050565b60006080830160008301518482036000860152613c2d828261354b565b91505060208301518482036020860152613c47828261354b565b9150506040830151613c5c6040860182613d3d565b5060608301518482036060860152613c74828261354b565b9150508091505092915050565b60006060830160008301518482036000860152613c9e828261354b565b91505060208301518482036020860152613cb8828261354b565b91505060408301518482036040860152613cd2828261354b565b9150508091505092915050565b60006060830160008301518482036000860152613cfc828261354b565b91505060208301518482036020860152613d16828261354b565b91505060408301518482036040860152613d30828261354b565b9150508091505092915050565b613d4681613f84565b82525050565b6000613d5882846135bd565b915081905092915050565b6000610120820190508181036000830152613d7e818c613584565b90508181036020830152613d92818b613584565b90508181036040830152613da6818a613af3565b90508181036060830152613dba8189613678565b90508181036080830152613dce8188613c10565b905081810360a0830152613de28187613cdf565b905081810360c0830152613df681866138b2565b905081810360e0830152613e0a81856139b5565b9050818103610100830152613e1f8184613700565b90509a9950505050505050505050565b60006020820190508181036000830152613e48816135ee565b9050919050565b60006020820190508181036000830152613e6881613611565b9050919050565b60006020820190508181036000830152613e898184613744565b905092915050565b6000613e9b613eac565b9050613ea78282614002565b919050565b6000604051905090565b600067ffffffffffffffff821115613ed157613ed0614062565b5b602082029050602081019050919050565b600067ffffffffffffffff821115613efd57613efc614062565b5b613f06826140aa565b9050602081019050919050565b6000819050602082019050919050565b600081519050919050565b600081519050919050565b6000602082019050919050565b600082825260208201905092915050565b600082825260208201905092915050565b600082825260208201905092915050565b600081905092915050565b6000819050919050565b82818337600083830152505050565b60005b83811015613fbb578082015181840152602081019050613fa0565b83811115613fca576000848401525b50505050565b60006002820490506001821680613fe857607f821691505b60208210811415613ffc57613ffb614033565b5b50919050565b61400b826140aa565b810181811067ffffffffffffffff8211171561402a57614029614062565b5b80604052505050565b7f4e487b7100000000000000000000000000000000000000000000000000000000600052602260045260246000fd5b7f4e487b7100000000000000000000000000000000000000000000000000000000600052604160045260246000fd5b600080fd5b600080fd5b600080fd5b600080fd5b600080fd5b6000601f19601f8301169050919050565b7f4f7264657220616c7265616479206578697374732e0000000000000000000000600082015250565b7f4f7264657220646f6573206e6f742065786973742e0000000000000000000000600082015250565b61411681613f84565b811461412157600080fd5b5056fea264697066735822122095676fd35e0808f26a92c40ef4246d5a96227d125598f43e555768d17565be3d64736f6c63430008060033",
  "immutableReferences": {},
  "source": "// SPDX-License-Identifier: MIT\r\npragma solidity ^0.8.6;\r\n\r\ncontract DabbaSystem {\r\n    struct ProviderStage {\r\n        string foodProviderId;\r\n        string foodProviderName;\r\n        string providerLocation;\r\n        string timePickedUp;\r\n        string collectorId;\r\n        string collectorName;\r\n    }\r\n\r\n    struct CollectorStage {\r\n        string collectionStation;\r\n        string sortingTime;\r\n    }\r\n\r\n    struct ResidentialSorterStage {\r\n        string residentialSorterId;\r\n        string residentialSortStation;\r\n        uint sortedBoxCount;\r\n        string timeBoardedTrain;\r\n    }\r\n\r\n    struct TransporterStage {\r\n        string transporterId;\r\n        string trainNumber;\r\n        string timeReachedDestination;\r\n    }\r\n\r\n    struct DestinationSorterStage {\r\n        string destinationSorterId;\r\n        uint boxesReceived;\r\n        string[] receivedOrderIds;\r\n        string timeToDistribute;\r\n    }\r\n\r\n    struct DistributionStage {\r\n        string distributorId;\r\n        string deliveryCenter;\r\n        string[] distributedOrderIds;\r\n        string deliveryTime;\r\n        string receiverName;\r\n    }\r\n\r\n    struct CustomerStage {\r\n        string customerConfirmed;\r\n        string deliveryConfirmationTime;\r\n    }\r\n\r\n    struct DabbaLog {\r\n        string orderId;\r\n        string qrHash;\r\n        ProviderStage provider;\r\n        CollectorStage collector;\r\n        ResidentialSorterStage residentialSorter;\r\n        TransporterStage transporter;\r\n        DestinationSorterStage destinationSorter;\r\n        DistributionStage distribution;\r\n        CustomerStage customer;\r\n    }\r\n\r\n    mapping(string => DabbaLog) public dabbaRecords;\r\n\r\n    modifier orderExists(string memory _orderId) {\r\n        require(bytes(dabbaRecords[_orderId].orderId).length != 0, \"Order does not exist.\");\r\n        _;\r\n    }\r\n\r\n    modifier orderNotExists(string memory _orderId) {\r\n        require(bytes(dabbaRecords[_orderId].orderId).length == 0, \"Order already exists.\");\r\n        _;\r\n    }\r\n\r\n    // 1. Food Provider + QR Init\r\n    function createOrder(\r\n        string memory _orderId,\r\n        string memory _qrHash,\r\n        string memory _foodProviderId,\r\n        string memory _foodProviderName,\r\n        string memory _providerLocation,\r\n        string memory _timePickedUp,\r\n        string memory _collectorId,\r\n        string memory _collectorName\r\n    ) public orderNotExists(_orderId) {\r\n        DabbaLog storage order = dabbaRecords[_orderId];\r\n        order.orderId = _orderId;\r\n        order.qrHash = _qrHash;\r\n        order.provider = ProviderStage(\r\n            _foodProviderId,\r\n            _foodProviderName,\r\n            _providerLocation,\r\n            _timePickedUp,\r\n            _collectorId,\r\n            _collectorName\r\n        );\r\n    }\r\n\r\n    // 2. Collector Stage\r\n    function logCollectorStage(\r\n        string memory _orderId,\r\n        string memory _collectionStation,\r\n        string memory _sortingTime\r\n    ) public orderExists(_orderId) {\r\n        dabbaRecords[_orderId].collector = CollectorStage(\r\n            _collectionStation,\r\n            _sortingTime\r\n        );\r\n    }\r\n\r\n    // 3. Residential Sorter\r\n    function logResidentialSortingStage(\r\n        string memory _orderId,\r\n        string memory _residentialSorterId,\r\n        string memory _station,\r\n        uint _sortedBoxCount,\r\n        string memory _timeBoarded\r\n    ) public orderExists(_orderId) {\r\n        dabbaRecords[_orderId].residentialSorter = ResidentialSorterStage(\r\n            _residentialSorterId,\r\n            _station,\r\n            _sortedBoxCount,\r\n            _timeBoarded\r\n        );\r\n    }\r\n\r\n    // 4. Transporter\r\n    function logTransportStage(\r\n        string memory _orderId,\r\n        string memory _transporterId,\r\n        string memory _trainNumber,\r\n        string memory _timeReached\r\n    ) public orderExists(_orderId) {\r\n        dabbaRecords[_orderId].transporter = TransporterStage(\r\n            _transporterId,\r\n            _trainNumber,\r\n            _timeReached\r\n        );\r\n    }\r\n\r\n    // 5. Destination Sorter\r\n    function logDestinationSortingStage(\r\n        string memory _orderId,\r\n        string memory _destinationSorterId,\r\n        uint _boxesReceived,\r\n        string[] memory _receivedOrderIds,\r\n        string memory _timeToDistribute\r\n    ) public orderExists(_orderId) {\r\n        dabbaRecords[_orderId].destinationSorter = DestinationSorterStage(\r\n            _destinationSorterId,\r\n            _boxesReceived,\r\n            _receivedOrderIds,\r\n            _timeToDistribute\r\n        );\r\n    }\r\n\r\n    // 6. Distribution Stage\r\n    function logDistributionStage(\r\n        string memory _orderId,\r\n        string memory _distributorId,\r\n        string memory _deliveryCenter,\r\n        string[] memory _distributedOrderIds,\r\n        string memory _deliveryTime,\r\n        string memory _receiverName\r\n    ) public orderExists(_orderId) {\r\n        dabbaRecords[_orderId].distribution = DistributionStage(\r\n            _distributorId,\r\n            _deliveryCenter,\r\n            _distributedOrderIds,\r\n            _deliveryTime,\r\n            _receiverName\r\n        );\r\n    }\r\n\r\n    // 7. Customer Confirmation\r\n    function logCustomerConfirmationStage(\r\n        string memory _orderId,\r\n        string memory _confirmation,\r\n        string memory _confirmationTime\r\n    ) public orderExists(_orderId) {\r\n        dabbaRecords[_orderId].customer = CustomerStage(\r\n            _confirmation,\r\n            _confirmationTime\r\n        );\r\n    }\r\n\r\n    // View Order Info\r\n    function getOrder(string memory _orderId) public view returns (DabbaLog memory) {\r\n        return dabbaRecords[_orderId];\r\n    }\r\n}\r\n",
  "sourcePath": "C:\\Users\\ANIRUDH KRISHNAN\\dabbawala-blockchain\\contracts\\DabbaSystem.sol",
  "compiler": {
    "name": "solc",
    "version": "0.8.6+commit.11564f7e.Emscripten.clang"
  },
  "schemaVersion": "3.4.16",
  "updatedAt": "2025-05-24T11:51:31.647Z",
  "networkType": "ethereum",
  "devdoc": {
    "kind": "dev",
    "methods": {},
    "version": 1
  },
  "userdoc": {
    "kind": "user",
    "methods": {},
    "version": 1
  }
}